:020000040800F2
:10000000680600208901000891010008930100089A
:100010009501000897010008990100080000000000
:100020000000000000000000000000009B0100082C
:100030009D010008000000009F0100081702000851
:10004000A3010008A3010008A3010008A301000800
:10005000A3010008A3010008A3010008A3010008F0
:10006000A3010008A3010008A3010008A3010008E0
:10007000A3010008A3010008A3010008A3010008D0
:10008000A3010008A3010008A3010008A3010008C0
:10009000A3010008A3010008A3010008A3010008B0
:1000A000A3010008A3010008A3010008A3010008A0
:1000B000A3010008A301000800000000A30100083C
:1000C000A30100080000000000000000A3010008D8
:1000D00000000000A3010008A301000800000000C8
:1000E000A3010008A3010008A301000800F002F822
:1000F00000F03AF80AA090E8000C82448344AAF188
:100100000107DA4501D100F02FF8AFF2090EBAE885
:100110000F0013F0010F18BFFB1A43F0010318473B
:100120003404000054040000103A24BF78C878C199
:10013000FAD8520724BF30C830C144BF04680C60ED
:10014000704700000023002400250026103A28BF35
:1001500078C1FBD8520728BF30C148BF0B60704739
:100160001FB51FBD10B510BD00F0BDF91146FFF75A
:10017000F7FF00F0A0F900F0DBF903B4FFF7F2FF9E
:1001800003BC00F0DFF90000094880470948004738
:10019000FEE7FEE7FEE7FEE7FEE7FEE7FEE7FEE737
:1001A000FEE7FEE704480549054A064B7047000094
:1001B000B5040008ED000008680000206806002073
:1001C000680200206802002007214FF0E022516100
:1001D0000521116106E04FF0E021096911F4803F2B
:1001E00000D0401E0028F6D100214FF0E02211611E
:1001F00070471049086041F63F714FF0E0225161AD
:100200000721116100BF0B4909680029FBD14FF09C
:10021000E0221161704707480068401E05490860E8
:100220004FF0E020006940F480304FF0E021086199
:1002300070470000000000205848C06940F40010DA
:100240005649C8610846806940F008008861084640
:10025000806940F0010088615148006840F07F40AB
:100260004F4908604F48008840F008004D49088019
:10027000081F008820F00100091F08804948183035
:10028000008820F40040474918310880084600885B
:1002900040F0280008800920091D08804148001FFF
:1002A000008840F480603F49091F08803D48001DD8
:1002B000008820F400403B49091D0880084600885A
:1002C00040F0020008803748001F008820F08000BE
:1002D0003449091F08800846008840F00100088062
:1002E000704710B52F4B1B1F1B8843F480732D4C98
:1002F000241F238000BF2B4B10331B8813F0010FEA
:10030000F9D0284B0C3318801B1D1B88DAB2254B03
:1003100014331B88DAB200BF224B10331B8833F032
:100320008003F9D01F4B0C33198000BF1D4B1033D5
:100330001B8833F08003F9D01A4B1B1F1B8843F432
:100340000073184C241F238000BF164B1B1F1B88F3
:1003500013F4007FF9D110BD00BF124B1B1D1B8889
:100360008B42FAD10F4B10331B88DAB20D4B14338A
:100370001B88DAB200BF0B4B10331B8833F08003AD
:10038000F9D0084B0C331B88D8B200BF054B103393
:100390001B8833F08003F9D0704700000010024042
:1003A000000C01400454004070B505460C4605F0B1
:1003B000F00504F00F0445EA04003C49086045EAF2
:1003C000040040F0010008600520FFF7FDFE45EA4B
:1003D00004003649086070BD10B5044604F0F00012
:1003E0000021FFF7E1FF2107080E0021FFF7DCFFE6
:1003F000042C03DA0220FFF7FCFE02E02820FFF7BE
:10040000E3FE10BD10B52A48806940F00400284979
:1004100088614FF0333025490C3908601420FFF70C
:10042000E8FE00213020FFF7BFFF0520FFF7E1FEC7
:1004300000213020FFF7B8FF6420FFF7DAFE00212B
:100440003020FFF7B1FF2820FFF7D3FE0021202046
:10045000FFF7AAFF2820FFF7CCFE2820FFF7BCFFFC
:100460000620FFF7B9FF0120FFF7B6FF0F20FFF7C7
:10047000B3FF10BD10B5044604F0F0000421FFF7EF
:1004800093FF2107080E0421FFF78EFF2820FFF7B6
:100490009BFE10BD70B50446002503E0605DFFF7CC
:1004A000E9FF6D1C605D0028F8D170BD0C080140AB
:1004B000001002407047FFF7A5FFFFF7BDFE0120C7
:1004C000FFF78AFF8020FFF787FF08E0FFF744FF70
:1004D0000446FFF7CFFF4FF4FA70FFF78AFEF5E707
:1004E000704770477047754600F028F8AE46050023
:1004F0006946534620F00700854618B020B5FFF73F
:1005000051FEBDE820404FF000064FF000074FF0CD
:1005100000084FF0000B21F00701AC46ACE8C00921
:10052000ACE8C009ACE8C009ACE8C0098D4670472A
:100530000446AFF300802046FFF71FFE00487047D7
:100540000400002001491820ABBEFEE7260002008F
:10055000704700007405000800000020040000003F
:100560002801000878050008040000206406000047
:08057000440100080000000036
:040000050800018965
:00000001FF
