:020000040800F2
:10000000680600208901000891010008930100089A
:100010009501000897010008990100080000000000
:100020000000000000000000000000009B0100082C
:100030009D010008000000009F0100081702000851
:10004000A3010008A3010008A3010008A301000800
:10005000A3010008A3010008A3010008A3010008F0
:10006000A3010008A3010008A3010008A3010008E0
:10007000A3010008A3010008A3010008A3010008D0
:10008000A3010008A3010008A3010008A3010008C0
:10009000A3010008A3010008A3010008A3010008B0
:1000A000A3010008A3010008A3010008A3010008A0
:1000B000A3010008A301000800000000A30100083C
:1000C000A30100080000000000000000A3010008D8
:1000D00000000000A3010008A301000800000000C8
:1000E000A3010008A3010008A301000800F002F822
:1000F00000F03AF80AA090E8000C82448344AAF188
:100100000107DA4501D100F02FF8AFF2090EBAE885
:100110000F0013F0010F18BFFB1A43F0010318473B
:100120008C040000AC040000103A24BF78C878C1E9
:10013000FAD8520724BF30C830C144BF04680C60ED
:10014000704700000023002400250026103A28BF35
:1001500078C1FBD8520728BF30C148BF0B60704739
:100160001FB51FBD10B510BD00F0E1F91146FFF736
:10017000F7FF00F0C8F900F0FFF903B4FFF7F2FF52
:1001800003BC00F003FA0000094880470948004713
:10019000FEE7FEE7FEE7FEE7FEE7FEE7FEE7FEE737
:1001A000FEE7FEE704480549054A064B7047000094
:1001B00005050008ED000008680000206806002022
:1001C000680200206802002007214FF0E022516100
:1001D0000521116106E04FF0E021096911F4803F2B
:1001E00000D0401E0028F6D100214FF0E02211611E
:1001F00070471049086041F63F714FF0E0225161AD
:100200000721116100BF0B4909680029FBD14FF09C
:10021000E0221161704707480068401E05490860E8
:100220004FF0E020006940F480304FF0E021086199
:1002300070470000000000205848C06940F40010DA
:100240005649C8610846806940F008008861084640
:10025000806940F0010088615148006840F07F40AB
:100260004F4908604F48008840F008004D49088019
:10027000081F008820F00100091F08804948183035
:10028000008820F40040474918310880084600885B
:1002900040F0280008800920091D08804148001FFF
:1002A000008840F480603F49091F08803D48001DD8
:1002B000008820F400403B49091D0880084600885A
:1002C00040F0020008803748001F008820F08000BE
:1002D0003449091F08800846008840F00100088062
:1002E000704710B52F4B1B1F1B8843F480732D4C98
:1002F000241F238000BF2B4B10331B8813F0010FEA
:10030000F9D0284B0C3318801B1D1B88DAB2254B03
:1003100014331B88DAB200BF224B10331B8833F032
:100320008003F9D01F4B0C33198000BF1D4B1033D5
:100330001B8833F08003F9D01A4B1B1F1B8843F432
:100340000073184C241F238000BF164B1B1F1B88F3
:1003500013F4007FF9D110BD00BF124B1B1D1B8889
:100360008B42FAD10F4B10331B88DAB20D4B14338A
:100370001B88DAB200BF0B4B10331B8833F08003AD
:10038000F9D0084B0C331B88D8B200BF054B103393
:100390001B8833F08003F9D0704700000010024042
:1003A000000C0140045400405248806940F00400B1
:1003B0005049886150485149086070474FF2FF002A
:1003C0004E4A0C321060101F016809B900207047B6
:1003D0000120FCE77FB54A4B0FCB8DE80F004FF2B1
:1003E000FF0046490C310860081F046814B900205A
:1003F00004B070BD41E000254FF6FF603F490C316D
:1004000008600220FFF7E0FE3C480830006800F476
:10041000704404B132E001254FF6FF5037490C31EA
:1004200008600220FFF7D0FE34480830006800F46E
:10043000704404B122E002254FF6FF302F490C3101
:1004400008600220FFF7C0FE2C480830006800F466
:10045000704404B112E003254FF2FF7027490C31BC
:1004600008600220FFF7B0FE24480830006800F45E
:10047000704404B102E00020BAE7BCE700BFB4F565
:10048000805F02D11DF82500B2E7B4F5005F04D10A
:10049000684600EB85004078AAE7B4F5804F04D1A8
:1004A000684600EB85008078A2E7B4F5004F04D1E0
:1004B000684600EB8500C0789AE7002098E710B501
:1004C00000BF00BFFFF786FF0028FBD11420FFF715
:1004D00090FEFFF77FFF0028F3D100BFFFF77AFF00
:1004E00004461420FFF785FEFFF774FFA042F5D104
:1004F000204610BD00100240333344440008014040
:100500009C0500087047FFF74FFFFFF795FE0AE0D4
:10051000FFF760FF04461CB121460120FFF7E1FE12
:100520006420FFF766FEF3E7704770477047754633
:1005300000F028F8AE4605006946534620F0070053
:10054000854618B020B5FFF72DFEBDE820404FF0DE
:1005500000064FF000074FF000084FF0000B21F0AD
:100560000701AC46ACE8C009ACE8C009ACE8C0097A
:10057000ACE8C0098D4670470446AFF300802046C2
:10058000FFF7FBFD004870470400002001491820D8
:10059000ABBEFEE726000200704700003738392F57
:1005A0003435362A3132332D2E303D2BCC05000820
:1005B000000000200400000028010008D005000809
:1005C0000400002064060000440100080000000050
:040000050800018965
:00000001FF
